:020000040800F2
:10000000E00E0020C9000008D9200008631C000889
:1000100000000000000000000000000000000000E0
:100020000000000000000000000000005F26000843
:10003000000000000000000021210008B32C00088F
:10004000DB00000800000000DB000008DB00000807
:10005000DB000008DB000008DB0000085105000899
:1000600000000000DB000008DB000008DB000008E7
:10007000DB000008912D0008DB00000800000000F4
:10008000DB000008DB00000800000000DB000008C7
:10009000DB000008DB000008DB000008DB000008D4
:1000A000DB000008DB000008DB000008D13100089D
:1000B000FD3100080348854600F07AF80048004703
:1000C000753A0008E00E00200448804704480047C5
:1000D000FEE7FEE7FEE7FEE7FEE7FEE7352D000858
:1000E000B500000830B50B4601460020202201244F
:1000F00009E00D46D5409D4205D31D469540491B5C
:100100002546954040191546521E002DF1DC30BDA4
:1001100010B5202A04DB0846203AD040002110BD4B
:100120000B46D340D0402024A21A914008431946E0
:1001300010BD10B5431A934209D28318881803E002
:10014000401E01785B1E1970521EF9D210BD034685
:100150000B439B0703D009E008C9121F08C0042AFB
:10016000FAD203E00B780370401C491C521EF9D2EE
:1001700010BDD2B201E00270401C491EFBD2704794
:100180000022F6E710B513460A4604461946FFF763
:10019000F0FF204610BD30B504460020034600E0C5
:1001A0005B1C934203D2E05CCD5C401BF8D030BDB9
:1001B000064C0125064E05E0E36807CC2B430C3CBA
:1001C00098471034B442F7D3FFF778FF484200084D
:1001D0006842000810B510220A490B48FFF7A9FF32
:1001E00008490948032211311030FFF7A2FF0648E1
:1001F000203802F003F804480449203803F0ECFBEF
:1002000010BD000019000020CA0A0020FA090020D1
:1002100070B509480025417A062904D14572017953
:10022000006800F003F9054C607A032803D12068C8
:1002300002F0C0FA657270BD9000002084000020BA
:1002400010B50548054A0168914203D900210160B3
:1002500002F006FA10BD0000300000201027000058
:1002600070B5134D2878134C03280AD112488178B1
:10027000C01D03F09BF82878032802D1207802F0F3
:1002800033FC287806280ED0287804280ED10B4994
:10029000002008801E2003F0BBFA094802F0B2FAE1
:1002A000C82003F0B5FA207802F01EFC70BD0000F3
:1002B00043000020460000204802002044000020A7
:1002C000D13D000870B504460C4800220C4E11E0E8
:1002D0002578521C2B4643401B07DB0EF35A0009BE
:1002E0004340280958400007C00E305A1B095840A7
:1002F00092B2641C8A42EBD370BD0000FFFF000085
:10030000D83F000870B50646002002F00DF8012421
:100310000925E403ED0600222146284600F05EFC94
:10032000342002F067F8304602F064F801222146DA
:10033000284600F053FC70BD10B50F220249034857
:1003400002F0F9F810BD00001000002000F80008CD
:10035000F0B50746044600260C37C1B035460822E2
:100360002F493846FFF717FF0006000E0AD06D1C14
:10037000ADB2082DFBD30020401C80B20828FBD36F
:1003800041B0F0BD394626480831083010220746F2
:100390000091FFF700FF0006000E09D0102238463A
:1003A0000099FFF7C6FE6D1CADB2102DFBD30126E0
:1003B0001B486178401E427E8A420BD1827EA37820
:1003C0009A4207D1C27EE3789A4203D1027F237911
:1003D0009A4207D0417612480322A11C1930FFF738
:1003E000A8FE01E0002E0CD00D490F22491E0D4839
:1003F00002F0AEF80C4800F0A7FAFFF7EBFE03F0AE
:1004000019F80121684601710021417102200A4654
:10041000009001AB02A9204602F056FFB0E70000B1
:100420001100002000F8000846000020FEB50D462F
:1004300004462EA103C900900191A81E81B2204656
:10044000FFF740FF611920398A7FC97F12025118D6
:10045000814249D1FFF770FF60782649202817D0E4
:10046000302841D1312060700820A0700246E01C85
:10047000491CFFF75EFEA1782046C91CFFF722FF4A
:10048000010AE1722073A27821461B48521D29E01F
:1004900001260D460E700822E11C681CFFF749FE7C
:1004A000164F0F221349384602F052F8FFF744FF67
:1004B0000822691CE01CFFF76EFE00280FD02221E5
:1004C0006846417086700021C170DE220271BD2233
:1004D000427129700F220749384602F039F8062286
:1004E0006946054802F092FEFEBD0000682101FF4A
:1004F0009E0D0000100000200038014000F80008A8
:10050000F8B50024FFF718FF0D4E0E4D0E4F307852
:10051000012814D0687A062805D100206872A979CC
:100520002868FFF783FF641CBC4204D900240C2117
:10053000064802F07AFE012003F06AF9E7E7F8BD09
:100540001000002090000020DC0500000038014071
:1005500010B5802000F092FA10BD0000FFB50446EF
:10056000C07983B00609050760792D0F000609D50B
:100570000698002806D004980622211868460939F2
:10058000FFF7D7FD002713E00698002807D03801B1
:100590000119083108462D4A03F019F806E0380120
:1005A00000190830294A014603F06FF97F1CFFB299
:1005B000B742E9D3002D26D00698002818D0002095
:1005C00033015A1910210746491B04E01618361941
:1005D000401C3772C0B28142F8DC19190831084654
:1005E0001A4A02F0F4FF0498401B1030C5B20BE029
:1005F0003001011908310846144A03F046F90498FD
:1006000040191038F2E7049D607900060CD5069871
:10061000002809D0E17920460830081806226946EA
:10062000FFF787FDAD1DEDB2E81E81B22046FFF752
:1006300049FE020A611920394A7788775320C87722
:1006400005980570002007B0F0BD0000FA090020F1
:10065000064A0021D16106490A6902231A430A6148
:100660004861086940221043086170472802002051
:100670000020024010B5054B0022DA61044A1369DC
:10068000012423431361018010BD000028020020D3
:100690000020024010B50B4A0020D168CB060A4961
:1006A00004D5C86902231843C8611020D3685B07CA
:1006B00005D5CB6901242343CB6104210843D060D5
:1006C00010BD0000002002402802002070B5054641
:1006D00000F08AFA0646104C0AE0681C08D0002D8B
:1006E00004D000F081FA801BA84201D9032070BD1C
:1006F000E068C007F1D1E068800601D52020E06005
:10070000E068C00602D4E068400703D5FFF7C2FFE7
:10071000012070BD002070BD00200240FFB50D46D5
:10072000C1B0FF211C46164601316846FFF728FD7F
:1007300041982146083053270446002919D0093D25
:10074000EAB2694602F0B7FE05460246694620460F
:10075000FFF7EFFC294608314198FFF7B3FD01464A
:10076000000A60556019417087700B35357045B0CF
:10077000F0BD0B3DEAB2694602F0DCFE0546684674
:1007800047556A1C69462046FFF7D3FC0935EDE75B
:10079000F8B50546002001F0C7FD01260927F6033C
:1007A000FF0600223146384600F018FA0024285D82
:1007B00001F020FE641CE4B2082CF8D3012231467B
:1007C000384600F00BFAF8BDFFB5044681B01F466D
:1007D000002001F0A9FD01250926ED03F6060022FF
:1007E0002946304600F0FAF9202001F003FE029875
:1007F00001F000FE039801F0FDFD384601F0FAFD1E
:1008000001222946304600F0E9F9012001F08CFD73
:100810000027AA2001F0EEFDE0557F1CFFB2082F53
:10082000F7D301222946304600F0D8F905B0F0BDD3
:1008300070B5002001F078FD01250926ED03F606CC
:1008400000222946304600F0C9F9222001F0D2FDED
:1008500001222946304600F0C1F9012001F064FD73
:10086000AA2001F0C7FD134C2070AA2001F0C2FDA0
:100870006070AA2001F0BEFDA070AA2001F0BAFDB0
:10088000E070AA2001F0B6FD2071AA2001F0B2FDAF
:100890006071AA2001F0AEFD0002E080AA2001F004
:1008A000A9FDE1880843E08001222946304600F096
:1008B00095F970BD4E05002070B5002001F034FDA3
:1008C00001250926ED03F60600222946304600F0F0
:1008D00085F9012001F08EFD01222946304600F005
:1008E0007DF9012001F020FDAA2001F083FD154CC7
:1008F0002070AA2001F07EFD00026080AA2001F095
:1009000079FD618808436080AA2001F073FD2071A1
:10091000AA2001F06FFD0002E080AA2001F06AFD2C
:10092000E1880843E080AA2001F064FD2072AA203B
:1009300001F060FD607201222946304600F04EF958
:1009400070BD00004E0500200A210C2101700D2110
:1009500041700449044A0B7BD3714078085C1072E3
:1009600070470000EC3B00087200002070B50024C6
:10097000014620314A78022A03D0042181630124F0
:1009800016E0026813680E25AB4313600268136813
:100990005B085B0013600122056C1346AB40C56B1E
:1009A0006B604A7000220A70416B002900D08847B2
:1009B000204670BD03480169802211430161002077
:1009C0007047000000200240F0B51FB407461A48E7
:1009D0000024017E15461E46012907D0012101761B
:1009E0001648FFF773FE002803D020E0022005B070
:1009F000F0BD012F02D0022F00D00427220128468B
:100A00003146FFF785FB81B2019862001018FFF7AD
:100A100031FE0A48FFF75AFE09490A695208520096
:100A20000A61002803D1641CE4B2BC42E6D3024947
:100A300000220A76DBE700002802002050C30000F5
:100A40000020024005480169090605D504494160B6
:100A50000449416000207047012070470020024097
:100A600023016745AB89EFCD10B5802802D102483C
:100A700001F0E8FE10BD00004802002010B5044956
:100A80004A69024202D04861FFF7EEFF10BD000044
:100A900000040140F8B500238DE001249C40A446E9
:100AA00022407DD04C68022C01D0122C0CD1DC08E5
:100AB000A40027183C6A5D07ED0E0F26AE40B44334
:100AC0000E69AE4026433E6205685E000324B440D2
:100AD0000F79A543BF07BF0FB7402F4307604D688D
:100AE000012D05D0022D03D0112D01D0122D0ED1D4
:100AF0008568CF68A543B7402F4387604768654640
:100B0000AF430D79ED06ED0F9D403D434560C5684F
:100B1000A5438C68B4402C43C4604C68E40049D5BC
:100B2000284CA56901263543A561A4699D08344078
:100B30000094254CAD002F19BC689D072E0F0F2582
:100B4000B540AC430925ED06A84201D100250FE0D0
:100B50001E4DA84201D101250AE01D4DA84201D138
:100B6000022505E01B4DA84201D1032500E0052523
:100B7000B5402543BD60184C25684E689543F60383
:100B800000D51543256065684E689543B60300D5CA
:100B900015436560A5684E689543F60202D500E0EE
:100BA00008E01543A560E5684E689543B60200D598
:100BB0001543E5605B1C0A681446DC4000D06CE716
:100BC000F8BD000000100240000001400004004891
:100BD00000080048000C004800040140002A01D031
:100BE000816170478162704701480068704700006A
:100BF0003400002002480168491C01607047000071
:100C00003400002010B5064801681022114301602D
:100C1000002000F007F800F017F8002010BD0000D9
:100C20000020024010B5044600F048F97D21C900BB
:100C3000FFF758FA00F0F0FC00222146501E00F0A9
:100C40002FF8002010BD000008B50F48816901226F
:100C500011438161816911400091C26901040A4315
:100C6000C261C0690022084000901146501F00F088
:100C700017F800221146901E00F012F800221146CB
:100C8000501E00F00DF808BD00100240C106C90E4C
:100C900001208840014908607047000000E100E041
:100CA00010B501F01BFA10BDF8B505460068354CCB
:100CB000C00352D5E0690026C00007D4E1692004D2
:100CC0000143E161E1690140012600912E4801687C
:100CD000C90510D40168821511430160FFF784FF34
:100CE000074604E0FFF780FFC01B642824D826488D
:100CF0000068C005F6D5206A03273F02384020D09F
:100D00006968394081421CD0206A226AB8430121B7
:100D100009040A432262226A8A4322622062C007CF
:100D20000FD0FFF761FF009008E0FFF75DFF00992B
:100D3000411A1648814201D90320F8BD206A800774
:100D4000F3D5206A6968B84308432062002E04D0B6
:100D5000E169012000078143E1612878C00705D0DF
:100D6000206BA968800880000843206328788006EB
:100D700005D5206B10218843E968084320630020D3
:100D8000F8BD000000100240007000408813000011
:100D9000F8B5054644480E460068C007C00FB0428B
:100DA0000AD241480168490849003143016000689E
:100DB000C007C00FB0425CD128783C4C800705D5F5
:100DC0006068F0218843A968084360602878C007FC
:100DD0003FD06868012813D02168022813D0890702
:100DE000002946DA61688908890001436160FFF7DC
:100DF000FBFE6968074601290DD0022917D024E0BF
:100E000021688903ECE78901EAE7FFF7EDFEC11BE2
:100E10002748814217D860680007800F0128F4D165
:100E200017E0FFF7E1FEC11B214881420BD8606843
:100E30000007800F0228F4D10BE0FFF7D5FEC11B9D
:100E40001B48814201D90320F8BD60680007800F6C
:100E5000F3D115480168C907C90FB1420BD9016820
:100E600049084900314301600068C007C00FB04223
:100E700001D00120F8BD2878400706D56068072119
:100E800009028843E9680843606000F02DF8616852
:100E9000084A0906090F515CC8400749086000204C
:100EA000FFF7C0FE0020F8BD002002400010024005
:100EB00088130000D43B0008380000200148006877
:100EC0007047000038000020044805490068496860
:100ED000044A4905490F515CC8407047380000205A
:100EE00000100240E43B000810B512A30FCB88B0FD
:100EF0006C460FC413A30FCB0FC416494A680C20CD
:100F0000134603401448042B0FD0082B0DD1930235
:100F10001B0F6C46E45CC96A04AB0907090F595CF6
:100F2000D20304D5FFF7DEF8604308B010BD0B48CC
:100F30006043FAE702030405060708090A0B0C0DD3
:100F40000E0F10100102030405060708090A0B0C16
:100F50000D0E0F100010024000127A0000093D0033
:100F6000FEB504460078D04DC00747D0686800073A
:100F7000800F012807D068680007800F022809D178
:100F80006868C00306D52868800337D560680028E4
:100F90007ED033E0012062680004012A11D0810074
:100FA000002A01D0052A10D02A6882432A602868C6
:100FB000884328606068002814D0FFF715FE0646B5
:100FC0000CE0296801432960F4E72A680A432A6093
:100FD000F7E7FFF709FE801B64286FD828688003B5
:100FE000F7D50BE0FFF700FE064604E0FFF7FCFD37
:100FF000801B6428F1D828688003F7D42078012664
:10100000800700283BDA68680007800F07D068680F
:101010000007800F022809D16868C00306D4286839
:10102000800715D5E068012832D111E0E06800287A
:10103000286815D030432860FFF7D6FD074604E046
:10104000FFF7D2FDC01B0228C7D828688007F7D554
:101050002868F82188432169C900084328600EE008
:10106000400840002860FFF7BFFD074604E0FFF797
:10107000BBFDC01B0228B0D828688007F7D42078B1
:10108000000724D5E0690028686A10D0304300E0EA
:1010900008E16862FFF7A8FD074604E0FFF7A4FD3A
:1010A000C01B022899D8686A8007F7D50FE040086E
:1010B00040006862FFF798FD074605E09DE0FFF7F6
:1010C00093FDC01B022888D8686A8007F7D420786F
:1010D00004274007002860DA00200190E869C0007A
:1010E00008D4E969B8060143E961E96901400120D2
:1010F000009101906D480168C90511D401688215FD
:1011000011430160FFF770FD009005E0FFF76CFDF3
:101110000099401A642870D864480068C005F5D565
:10112000A06801280AD0002801D0052810D0286A1C
:10113000400840002862286AB84301E0286A30432A
:101140002862A068002812D0FFF74EFD00900AE048
:10115000286A38432862F1E7FFF746FD0099411AF3
:101160005348814249D8286A8007F5D50DE0FFF73A
:101170003BFD009006E0FFF737FD0099411A4C480F
:1011800081423AD8286A8007F5D40198002804D013
:10119000E969012000078143E9612078C00635D55F
:1011A000606901280CD0401D686B23D03843686308
:1011B000686B400840006863FFF716FD064622E0B2
:1011C000686B38436863686B30436863FFF70CFDF6
:1011D000064604E0FFF708FD801B02285BD8686B19
:1011E0008007F7D5686BF8218843A169C9000843D7
:1011F00068630BE0B8436863F4E74CE0FFF7F4FC86
:10120000801B022847D8686B8007F7D4206A002823
:1012100046D069680907890F022943D0012636069E
:101220000228286805D0B0432860FFF7DDFC04469B
:1012300033E0B0432860FFF7D7FC074604E0FFF730
:10124000D3FCC01B022826D828688001F7D4E86A9E
:10125000E16A000900010843E862616AA06A084384
:1012600069683D221204914308436860286830434E
:101270002860FFF7B9FC044604E0FFF7B5FC001B4B
:10128000022808D828688001F7D509E0FFF7ACFCF0
:10129000001B022801D90320FEBD28688001F5D477
:1012A0000020FEBD0120FEBD001002400070004085
:1012B00088130000F8B5040007D000262546403505
:1012C000A662687F002802D005E00120F8BD2E77D5
:1012D000204600F04BF802236B772068016840221B
:1012E000914301600721E0680902884201D9002288
:1012F00001E0012212030F273F02B84202D08842C8
:1013000000D0A662276B002F05D1884201D9236344
:1013100001E001202063A1686068636908432169D6
:10132000194308430123A1695B0219400843E1699D
:101330000843216A0843A16A084321680860616B79
:10134000606AA36908431B0C0427E1683B4019430A
:1013500008432168104348602068C1697A029143BC
:10136000C1612666012068770020F8BD00B50068DD
:101370000D4987B0884214D10C48826981140A4310
:101380008261806908400590382000900220002189
:101390000190032002910491039069460448FFF7ED
:1013A00079FB07B000BD0000003001400010024092
:1013B00000040048FFB5044683B0012025464035AF
:1013C0000090287F00270E4601280FD001202877A3
:1013D000FFF70AFC0190687F616801280DD0CA1FE1
:1013E000FD3A08D1A168002905D102E0022007B02A
:1013F000F0BD042801D00227FAE0002E7CD0059829
:101400000028FBD006980028F8D0687F042801D077
:101410000520687700202066059921640699E980F7
:101420000699A980A6630699E1870699A187E064D9
:1014300020650723E1681B02994202D8E888012849
:1014400006D920684268012109038A43426005E009
:10145000206841680122120311434160206801683D
:10146000490603D40168402211430160E1686068C5
:10147000994242D9002802D0E08F012835D1216855
:101480003088C860E08F401EE087B61C2DE00098D1
:1014900000280ED0E08F00280BD0206881688907D3
:1014A00007D53188C160E08F401EE0870020B61C60
:1014B0000090E88800280ED020688168C9070AD00B
:1014C000C068059908800598801C0590E888401E32
:1014D000E880012000900C98401C06D0FFF784FBA8
:1014E0000199411A0C9881426DD2E08F0028CED12B
:1014F000E8880028CBD16EE079E0002802D0E08FA8
:10150000012862D1E08F012807D921683088C8609E
:10151000E08F801EE087B61C57E0216830780873A2
:10152000E08F401EE087761C4FE00098002818D01E
:10153000E08F002815D020688168890711D5E18FD8
:10154000012906D93188C160E08F801EE087B61C72
:1015500005E031780173E08F401EE087761C0020A3
:101560000090E888002824D020688168C90720D02E
:10157000E988012912D9C068059908800598801C5E
:101580000590E888801EE880E88801280FD8206848
:101590004168012212031143416008E0017B059874
:1015A00001700598401C0590E888401EE8800120E5
:1015B00000900C98401C08D0FFF716FB0199401AC8
:1015C0000C99884201D3032712E0E08F0028ACD1A8
:1015D000E8880028A9D12046019A0C9900F0E4FE81
:1015E000002801D020202066206E002800D001278E
:1015F00001206877002028773846F8E6042204495D
:101600000428086902D09043086170471043FBE743
:1016100000E000E070470000094910B5401E884214
:1016200001D9012010BD074C60610321081F00F0A3
:1016300055FD0020A06107202061002010BD0000A2
:10164000FFFFFF0000E000E010B5FFF7E3FF10BD73
:101650007047704770B502462032137F012B1BD0B4
:101660000123137702245477046865687026B54314
:101670006560046865680E68354365600468A56840
:101680008026B543A5600068846849680C4384607F
:1016900053770020107770BD022070BD70B5040034
:1016A00005D025462035687F002802D006E00120BD
:1016B00070BD00202877204600F00AF802206877E5
:1016C000211D206801F06CFB01206877002070BDAF
:1016D00008B50068094988420FD109488269C114D8
:1016E0000A438261806900220840009011460D2063
:1016F000FFF7D6FA0D20FFF7C9FA08BD002C01400C
:10170000001002400268D36801210B43D3600068D7
:1017100002680A43026000207047F8B50546044697
:101720002035287F012817D001272F7702206877DE
:10173000226890687726FF23B0431B02984390608D
:101740000868502837D00EDC202857D006DC002847
:101750004ED0102840D14EE00220F8BD302850D0A5
:10176000402839D13CE060282DD0702817D00122C4
:101770001203801A0ED090422ED1CB684A68896835
:10178000206801F051FB2068816801229203114317
:10179000816021E020688168C908C900F8E7CB684A
:1017A0004A688968206801F03FFB21688868B04377
:1017B0003043886010E0CA684968206801F047FB40
:1017C0005021206806E0CA684968206801F050FB93
:1017D0006021206801F033FB6F7700202877F8BD87
:1017E000CA684968206801F032FB40212068F1E7AF
:1017F00000212068EEE710212068EBE72021206817
:10180000E8E730212068E5E7704770B504460068D6
:1018100001690025C9438907002915DBC168C9434F
:10182000890711D4E91E01610120207720688069B1
:101830008007204602D0FFF7E7FF04E000F096F8AB
:10184000204600F094F8257720680169C9434907CC
:1018500017D4C168C943490713D40421C94301619E
:1018600002202077206880698005800F204602D002
:10187000FFF7CAFF04E000F079F8204600F077F89F
:10188000257720680169C943090716D4C168C9438F
:10189000090712D40821C943016104202077206878
:1018A000C0698007204602D0FFF7AEFF04E000F0D9
:1018B0005DF8204600F05BF8257720680169C94390
:1018C000C90617D4C168C943C90613D41021C94336
:1018D0000161082020772068C0698005800F2046BC
:1018E00002D0FFF791FF04E000F040F8204600F03E
:1018F0003EF8257720680169C943C90708D1C16846
:10190000C943C90704D1891E0161204600F030F89F
:1019100020680169C943090609D4C168C943090699
:1019200005D48021C94301612046FFF791FE20685C
:101930000169C943490609D4C168C943490605D4A8
:101940004021C9430161204600F020F82068016968
:10195000C943890609D4C168C943890605D4202131
:10196000C94301612046FFF774FE70BD70477047A0
:101970000449887A401C887203480168491C016048
:10198000704700008400002030000020704770473E
:1019900001466031487A897A08437047F8B5036890
:1019A0000446D96918680D072D0F07D18A0605D599
:1019B000820603D5204601F002FBF8BD9A68002D8F
:1019C00064D0D507ED0FFF26213606402E435DD0AB
:1019D000CE0706D0C60504D501261E62E36E33434A
:1019E000E3668F0702230426002F06DAD70704D008
:1019F00027683B62E76E3743E7664F0706D5D20795
:101A000004D022681662E26E1A43E2660A0709D51C
:101A1000202202402A4305D0236808221A62E36E7E
:101A20001343E366E26E002AC7D0890604D5800618
:101A300002D5204601F0C3FAE06E000703D4206807
:101A4000806840061CD5204601F09DFA2068816818
:101A5000490611D58168402291438160606E00285B
:101A60000AD012494163606EFEF780FF0028A4D0BF
:101A7000606E416B8847F8BD2046FFF788FFF8BDD0
:101A80002046FFF784FF0020E066F8BD0A0605D572
:101A9000020603D5204601F067FBF8BD4906FCD5D8
:101AA0004006FAD5204601F07DFAF8BD732F0008F4
:101AB00070B5040005D025466035687A002802D04C
:101AC00006E0012070BD00202872204600F026F8B4
:101AD0002420687220680168490849000160204696
:101AE00001F0AAFA0128EDD0606A002802D0204651
:101AF00001F0D1F9206841680122D202914341608E
:101B00002068816808229143816020680168012271
:101B100011430160204601F023FA70BDF0B506685C
:101B20001E4F092000221E49022303240125C0065E
:101B300087B0BE4215D18F695E0337438F618969D3
:101B40000193314005916102009102AE34C66946AD
:101B5000FEF7A0FF002211461B20FFF7A1F81B2073
:101B600018E0104FBE4217D1CF69012676043743E3
:101B7000CF61C9690193314005910C21009102AEFA
:101B800034C66946FEF786FF002211461C20FFF787
:101B900087F81C20FFF77AF807B0F0BD0038014045
:101BA000001002400044004070B5034660339C7A48
:101BB000202C39D100290BD0002A09D001258468B6
:101BC0002D03AC4206D10669002E03D1CE0701D009
:101BD000012070BD1E7A012E26D001261E7241659D
:101BE000014640310A834A83FF22AC4204D1046992
:101BF000002C07D10D4A05E0002C04D10469002C0B
:101C000000D07F228A830021C16622229A72197233
:101C100001688A6832438A6000680168FF222132C5
:101C200011430160002070BD022070BDFF01000063
:101C300010B500680649884208D1074C054920784C
:101C400001F0F8FA0549207800F020FD10BD0000F1
:101C500000380140900000203C000020840000205B
:101C60007047FEE730B500230BE0C55CCC5CA542B5
:101C700001D9012030BDA54201D2022030BD5B1C3C
:101C8000DBB29342F1D3002030BDF3B50C461121F5
:101C9000204600F02BF901461120411ACEB2801BDC
:101CA000C2B2A1190D46009800F0F0F800241220ED
:101CB000871B07E00098FAB2691E001900F0E6F8E9
:101CC000641CE4B2B442F5D3FCBD00214218527842
:101CD0004254491CC9B21029F8D30021017470473D
:101CE00070B50024012B0ED01023C518203DED7FC8
:101CF0004D432C19A4B2D4545B1E240A1B061B0EA0
:101D0000F3D1147070BD1023C518203DED7FD65C53
:101D10004D43AD192C19A4B2D4545B1E240A1B06E2
:101D20001B0EF1D110780019107070BDFFB50C4674
:101D300016461021204600F0D9F81021091A0D1975
:101D400000210A467254491CC9B21129FAD3002451
:101D5000471E11E0012332460098FFF7C1FF3046CD
:101D60000399FFF792FF3046FFF7AFFF3046039924
:101D7000FFF78BFF641CE4B2295DBC42EADB012360
:101D800032460098FFF7ACFF30460399FFF77DFF1E
:101D9000FFBD0000FFB583B01D4617460826102181
:101DA000104600F0A3F804006BD0102204990398A9
:101DB000FEF7BFF91020001BC01900900078002129
:101DC000020607D44006761E491C000EC9B2F6B2C0
:101DD0000829F5D34006070E761EF0B200260190C2
:101DE0001BE003992A4608460C9BFFF79FFF102231
:101DF000691C0398FEF79DF938060AD52A460C9B04
:101E000003990498FFF792FF1022691C0398FEF7CC
:101E100090F97806070E761CF6B201988642E0D358
:101E200000980021401C00901748671E017024E0B4
:101E3000009A0024565C03992A4608460C9BFFF73B
:101E400075FF1022691C0398FEF773F930060AD556
:101E50002A460C9B03990498FFF768FF1022691C1F
:101E60000398FEF766F97006641C060EE4B2082CAF
:101E7000E1D305480178491C017003480178B94253
:101E8000D6DB07B0F0BD0000A0000020F0B517467B
:101E90000C46054622E000203A461DE0AE18A11887
:101EA000203E2039F37FC97F994207D1002803D013
:101EB000591A491EC9B20CE000210AE0994204D225
:101EC000181A401AC1B2002003E0181A401AC1B211
:101ED0000120521EF177D2B2002ADFD13A462146C4
:101EE0002846FFF7BFFE0228D5D1F0BD002207E04B
:101EF000835C002B02D0881AC0B27047521CD2B249
:101F00008A42F5D300207047F0B5294887B042696E
:101F1000012189050A43426142690A4005924269EA
:101F200049110A43426142690A40059242694900E7
:101F30000A434261406900220840059009201D497A
:101F4000C006FEF74BFE1C4F002240213846FEF72C
:101F500045FE222001240025694631C10920694639
:101F6000C0060395FEF796FD402003266A4671C21F
:101F700069463846FEF78EFD802000900F4801909C
:101F8000694602953846FEF785FDE003009001AAF8
:101F900070C209206946C006FEF77CFD002211468A
:101FA0000720FEF77DFE0720FEF770FE07B0F0BDAC
:101FB00000100240228000000014004800002110A0
:101FC00010B511480F490160FF2105314160002122
:101FD0000722816012020161C26001224161520246
:101FE0008261016210224162C26181620722C26283
:101FF000016308214163FFF75DF9002800D0FEE787
:1020000010BD000000300140A400002010B51548AC
:1020100086B01349016000242F218460416004616F
:102020007D214461C9008461C160FFF737FB00284E
:1020300000D0FEE701200003009069460948FFF741
:102040006CFB002800D0FEE7049404A90548059421
:10205000FFF700FB002800D0FEE706B010BD00002F
:10206000002C01400801002010B50C480A4901600D
:102070004B214902416000218160C16001618161A1
:10208000C1610C22016242614162FFF711FD00282B
:1020900000D0FEE710BD00000038014048010020DC
:1020A00010B50C480A4901604B21490241600021EA
:1020B0008160C16001618161C1610C220162426184
:1020C0004162FFF7F5FC002800D0FEE710BD0000DC
:1020D00000440040B8010020704700008307FF2241
:1020E000DB0E9A408907090E994000280BDA000799
:1020F000000F0838830808489B001818C3699343E9
:102100000B43C3617047830804489B001B18186881
:10211000904308431860704700ED00E000E400E0E1
:102120007047000030B50B4D012805D010D90221B1
:10213000401E2970C4B208E00120287008E0287809
:10214000022101F08DFB2870E4B2641E002CF6DC45
:10215000004830BD9C000020F8B506460D46002022
:1021600000F0E2F80127FF03092000223946C006EB
:10217000FEF734FD772000F03DF9002405E0AA20A9
:1021800000F038F93055641CE4B2AC42F7D30920B2
:1021900001223946C006FEF721FDF8BDF8B5044618
:1021A0000020009000F0C0F801260925F603ED0696
:1021B000002231462846FEF711FD152000F01AF9DD
:1021C000204600F017F9012231462846FEF706FDA9
:1021D000012000F0A9F800246F46AA2000F00AF9B7
:1021E00038556846641C4178E4B20170022CF4D37F
:1021F000012231462846FEF7F1FCF8BDFEB5064641
:102200001A480190054604460746213410353437F4
:1022100010212046FDF7B4FF10210198FDF7B0FF13
:1022200011212846FDF7ACFF11213846FDF7A8FF24
:1022300010220F490198FDF77CFF0D491022103143
:10224000681CFDF776FF13220A492046FDF771FF4F
:102250003B46009521463046019AFFF79BFD207CC6
:10226000F070607CF071A07CF072FEBDFA09002075
:1022700018420008CA0A00207CB50120264C000341
:102280002080264D012240212846FEF7A7FC02208F
:1022900001F0BEFA002240212846FEF79FFC0A20EA
:1022A00001F0B6FA01250926ED03F60600222946BB
:1022B0003046FEF793FC022000F09CF8012000F06D
:1022C00099F8002000F096F8012000F093F8C9205A
:1022D00000F090F8C32000F08DF8802000F08AF81C
:1022E000012229463046FEF779FC022001F090FADF
:1022F00000231A4619466846FEF766FAFEF7DCFA2E
:1023000020202080064840880649884201D00120CC
:102310007CBD00207CBD0000480000200014004867
:102320004E05002038440000F8B507461C480488D4
:1023300001250926ED03F606002229463046FEF760
:102340004DFC442000F056F80EE0012229463046AC
:10235000FEF744FC002229463046FEF73FFC4420AD
:1023600000F048F8641EA4B2C02000F043F8FF2833
:1023700002D0002CE9D109E0002C07D0002F04D1B5
:10238000012229463046FEF729FCF8BD01222946E4
:102390003046FEF723FC034902200870F8BD000018
:1023A0004800002042000020F8B50F460B461546B5
:1023B0000092032104460022C90200F02BF82026D7
:1023C000002812D13B46002280212046009500F0D3
:1023D0006CF8002809D103213B460022490220461F
:1023E000009500F017F8002803D0206E30432066D7
:1023F0000320F8BD01B582B064200090012301AA3A
:1024000002A90348FEF7D6FF684600790EBD00001A
:10241000A4000020F8B51D4617460E4604463DE0D0
:10242000032149028E4205D1002F03D1017B68466A
:1024300001700078681C31D0002D05D0FEF7D4FB68
:102440000699401AA84229D320684168E0229143A6
:1024500041606068C11FFD390CD10121A068C9032A
:10246000884202D04911884204D120680168402284
:10247000914301600120A16A4003814207D1216894
:102480000A6882430A6021680A6802430A600120E0
:1024900040346077002020770320F8BD20688168F1
:1024A0003140B942BCD10020F8BDF8B51D461746F1
:1024B0000E46044633E0681C31D0002D05D0FEF7EF
:1024C00093FB0699401AA84229D320684168E0226C
:1024D000914341606068C11FFD390CD10121A068A2
:1024E000C903884202D04911884204D1206801689A
:1024F0004022914301600120A16A4003814207D13B
:1025000021680A6882430A6021680A6802430A60F7
:10251000012040346077002020770320F8BD206838
:1025200081683046884304D00020B842C3D10020DF
:10253000F8BD0120F9E730B5002305E004885D000F
:102540005B1C4C539BB2801C9342F7D330BD000000
:10255000F7B582B01F210298C90644180120000473
:10256000154684425DD2FEF76DFA0298A70A8005EF
:10257000C60D01204002841BA54200D82C46012034
:10258000B902C00608180122520227490090FFF73D
:10259000D2FF0020254907E032185300224AD25AC0
:1025A0008A4203D1401C80B2A042F5D3A0422FD270
:1025B0000098FEF74DF81E48FEF788F81D4801699F
:1025C000022291430161002008E003994200895AE8
:1025D00082195300144A401CD15280B2A042F4D355
:1025E000012252021049009800F026F8A54216D0A8
:1025F0000399600041180391029900264018029047
:10260000281B012485B264027F1CA542B7D8B5E718
:102610000748FEF75BF8224603990298E4E7FEF7C5
:10262000C9F905B0F0BD000058050020FFFF00000B
:1026300050C3000000200240F8B516460F4605467C
:10264000002409E060003A5A002329460120FEF7E1
:10265000BBF9641CA4B2AD1CB442F3D3F8BD7047FF
:102660001FB505A30FCB6C460FC40E226946064862
:1026700000F0CCFD1FBD0000AC0000000000000316
:1026800003FFFF42CA5300000038014030B54A7AC8
:102690000023002A12D0012A18D0022A15D1CA8894
:1026A0000D68541CCC80A854CA88642A00D94B7287
:1026B0008C88A24209D3532818D011E0AC2804D149
:1026C00001224A720B68CA80187030BDCA880D6832
:1026D000541CCC80A854CA88082A03D0642AF4D990
:1026E0004B7230BD0B308880022000E0032048721E
:1026F00030BD0000F8B50446AC2020702A480F46D3
:10270000407E2949154660701E4603221A31A01CDE
:10271000FDF70FFDA0791821C008C00008439F21D4
:10272000084080210843A071607931070009000149
:10273000090F08439F21084020304006400EEF213A
:1027400008406071281DE071002020720320607233
:10275000FF20A072E07220462A4639460C30FDF771
:10276000E8FCE17920460831FDF7ACFD020A611969
:102770000A73487353208873E07901230B30C1B288
:102780006A462046FDF7EAFE6846017801236A465C
:102790002046FDF7C3FF68460378044822460178C7
:1027A000034800F0CDF9F8BD1000002046000020DD
:1027B0004802002030B5C5B00446032069460870C1
:1027C00021466D4606220831681CFDF7B2FC214601
:1027D00006221431E81DFDF7ACFC214603A80622B1
:1027E0000E310130FDF7A5FC054813224378591C32
:1027F0004170694605A8FFF77DFF45B030BD000078
:1028000004000020F8B5054600242046FFF78CFDA3
:1028100001260927F603FF06002231463846FEF757
:10282000DDF904E0285DFFF7E5FD641CE4B2A8785B
:10283000001DA042F6D8012231463846FEF7CEF9F7
:10284000F8BD0000FEB50025044600952B462A463B
:10285000294668460195FDF7B7FF684602798178F9
:10286000D30701264648002B00D0C6801207032755
:10287000002A00DA07710A0703D504214171C580D7
:10288000FEBDCA0631D506468078002822D0F178F0
:10289000002905D0302250430019C01CFFF75CFC12
:1028A000FDF7C6FF3748C17861704178212905D30B
:1028B0004178262906D94178482903D240783249FF
:1028C000085C2070E078C01EA070207920707771BD
:1028D000F580FEBD0421E01CFFF73EFCE0780328F4
:1028E000DED9C01EC1B2E01DD8E7CA071DD005461B
:1028F000807800280CD0302148430019C01CFFF715
:102900002BFCE8783038E870A878401CA870FEBD31
:102910000421E01CFFF720FC2C21E01DFFF71CFC2C
:10292000E0782F38E870AE70FEBD8A0606D50570D7
:1029300006214171C80120180571FEBD8907FCD52B
:102940000178064630290ED97078302148430019A5
:10295000FF30433000F08EFD7078401C707030788E
:1029600030383070FEBD0029FCD0707830225043E2
:102970000019FF30433000F07DFD3570FEBD0000D2
:102980003E0000204E0500202E3C000810B55348A4
:10299000FFF738FF51481E38FFF734FF4F48183013
:1029A000FFF730FF4D484930FFF72CFF4B486130AF
:1029B000FFF728FF49481F30FFF724FF4748193821
:1029C000FFF720FF45486A30FFF71CFF43482630D9
:1029D000FFF718FF41488630FFF714FF3F48963055
:1029E000FFF710FF3D483430FFF70CFF3B48143829
:1029F000FFF708FF39483B30FFF704FF37485930ED
:102A0000FFF700FF3548A630FFF7FCFE33482D30B6
:102A1000FFF7F8FE3148801DFFF7F4FE2F480C3019
:102A2000FFF7F0FE2D480F38FFF7ECFE2B48AF30D4
:102A3000FFF7E8FE2948B830FFF7E4FE2748C83022
:102A4000FFF7E0FE2548D830FFF7DCFE2348513081
:102A5000FFF7D8FE2148E830FFF7D4FE1F487A3050
:102A6000FFF7D0FE1E48FFF7CDFE1C48F330FFF7FE
:102A7000C9FE1C48FFF7C6FE1A481030FFF7C2FE19
:102A800018482030FFF7BEFE16483030FFF7BAFE78
:102A900012484230FFF7B6FE11482838FFF7B2FE61
:102AA0000F482038FFF7AEFE0D481838FFF7AAFE92
:102AB0000B481038FFF7A6FE08481230FFF7A2FEB9
:102AC00006480A38FFF79EFE0448401FFFF79AFEAB
:102AD00003480838FDF75CFE10BD0000943C000878
:102AE00072000020973D00087FB50025044602953E
:102AF0002B462A46294602A80395FDF765FE0E4E91
:102B00003079012815D0412C00D941240220FFF74B
:102B100045FB032008210090019108480023005D37
:102B20001A46194600F072F8B570F5700120707100
:102B3000002004B070BD00003E000020EC3B000807
:102B4000F0B51C4685B01346002205460292684641
:102B500003920E4602802B480079012850D0FB2CAE
:102B600000D9FB24412E00D94126002006E02F1871
:102B7000FF37195C0137401CB971C0B2A042F6D3CF
:102B8000032000022F18E01CE87001212E71704014
:102B900069714840A871002078710320FDF7B2FBED
:102BA00000231A46194602A8FDF70EFE0120FFF782
:102BB000F5FAE81DFF3000903C2C09D92046114958
:102BC0003C3808700421E81C00F054FC3C2107E06C
:102BD0000C49002008700421E81C00F04BFC214641
:102BE000009800F047FC074D0520687101203871FE
:102BF0000548221D805D302100F037F80020687004
:102C000005B0F0BD3E000020EC3B0008FFB581B0F0
:102C1000144600200B9FFFF787FB01250926ED03D3
:102C2000F606002229463046FDF7D8FF3220FFF78E
:102C3000E1FB0198FFF7DEFB0298FFF7DBFB0020CA
:102C4000FFF7D8FBE0B2FFF7D5FB0498FFF7D2FB04
:102C50000A98FFF7CFFB3846FFF7CCFB0122294645
:102C60003046FDF7BBFF05B0F0BDF7B5074614468B
:102C70000020FFF759FB01250926ED03F606002287
:102C800029463046FDF7AAFF3120FFF7B3FB38464F
:102C9000FFF7B0FB0198FFF7ADFB0020FFF7AAFBA1
:102CA000E0B2FFF7A7FB012229463046FDF796FF69
:102CB000FEBD10B5FDF79EFFFEF7C6FC10BD70B55A
:102CC00094B00024102009940225049005200126C8
:102CD0000095C00403960A9008950B946846FEF789
:102CE0003FF9002800D0FEE707200C900E94012148
:102CF0000D950F940CA8FEF74BF8002800D0FEE7C6
:102D000010A810961294FDF7CFFF002800D0FEE720
:102D1000FEF7D4F87D21C900FDF7E4F9FEF77CFC4D
:102D20000420FEF76BFC00221146501EFDF7B8FF91
:102D300014B070BD1348016801221143016041685D
:102D4000114A114041600168104A11400160016858
:102D5000012292049143016041683F221204914391
:102D60004160C16A09090901C162016BFF22143285
:102D700091430163416B490849004163002181602F
:102D800070470000001002400CB8FF08FFFFF6FE7D
:102D900010B50248FEF739FD10BD00000801002003
:102DA000F0B502681A4B1B4C984201D0A04203D1E7
:102DB0007025AA434D682A43174D184E184F984264
:102DC0000AD0A04208D0174CA04205D0A84203D098
:102DD000B04201D0B84205D11446032212029443F6
:102DE000CA6822438024A2434C69224302608A6855
:102DF000C2620A688262984205D0A84203D0B042FB
:102E000001D0B84201D10969016301214161F0BDDE
:102E1000002C0140000400400040014000440140FB
:102E2000004801400020004030B58468FF252D0295
:102E30001B021343AC430B432343836030BD8268C2
:102E400070239A430A4307210A438260704730B5D2
:102E5000036A046A6408640004628469F025AC4370
:102E6000120122430A24A3430B438261036230BD53
:102E700030B5036A1024A34303628469036A0F25F3
:102E80002D031203AC432243A024A3430901194399
:102E90008261016230BD10B5818CC90707D001681D
:102EA0004A6801235B049A43836A1A434A60818C0F
:102EB000890707D501684A6801231B049A43C36A3E
:102EC0001A434A60818C490707D501684A68012383
:102ED0009B049A43036B1A434A60818C090707D508
:102EE00001684A680123DB039A43436B1A434A6033
:102EF000818CC90607D50268916801231B03994399
:102F0000836B19439160818C890607D501688A68B3
:102F100001235B039A43C36B1A438A60818C490681
:102F200012D503685A6801210905046C8A432243BB
:102F30005A60026C8A4207D10268516803235B051C
:102F40009943436C19435160818C090607D5016888
:102F50004A680123DB04806C9A4302434A6010BD37
:102F60000021C166202260304272827201720846DE
:102F7000704710B5406A0022014640314A834A82B8
:102F8000FEF705FD10BD01680A68FF2321339A434F
:102F90000A6001688A68520852008A602021603005
:102FA0008172704710B501680A6840239A430A602D
:102FB000202269210A54FEF753FE002010BD70B58F
:102FC0000246403203466033948B9D7A0168222D7D
:102FD00005D08869082210438861022070BD898C61
:102FE000012685683603B54202D10569002D0BD054
:102FF0002140446D651C45652170518B491E0904B3
:10300000090C518307D015E0456D21402980416DA1
:10301000891C4165F1E701680A68FF242134A24355
:103020000A6001688A68520852008A6020219972F9
:10303000FEF7FEFD002070BDF8B504462369A268C6
:10304000E5691A43636910202B43002125681A4360
:103050002B680E463E4F3B4013432B6023685A6853
:1030600003252D03AA43E5682A435A60236AA2690F
:1030700025681A43AB680B273F02BB431343AB6081
:10308000344A2568954210D1334A126B9207920F49
:103090000ED0012A05D0022A05D0032A09D1022028
:1030A00007E0042005E0082003E02C4A954200D107
:1030B00000200122E369D203934224D100280CD0DE
:1030C00002280DD0042813D0082817D001260A0999
:1030D00012010807400F10432FE0FDF7F5FE09E04D
:1030E00061681F4A48088018FCF7FCFF81B2EEE7D0
:1030F000FDF7FAFE616840004A08F4E761680122C2
:1031000048081204EFE7002808D0022809D0042854
:103110000BD0082814D001263046F8BDFDF7D4FEA8
:1031200005E061680F4A48080CE0FDF7DDFE6168C4
:103130004A088018FCF7D6FF80B22168C860EBE728
:10314000616848088018FCF7CDFF80B2E860E3E7CB
:10315000F369FFFF003801400010024000440040C6
:103160000024F40000127A006921095C212901D0B1
:103170000220704702464032518A002912D00123B2
:1031800081681B03994202D10169002915D0C16CE5
:103190004B1CC364006809780185508A401E508228
:1031A0000020704701680A6880239A430A6000681B
:1031B0000168402211430160F2E7C16C036809888D
:1031C000C905C90D1985C16C891CC164E5E70000FA
:1031D00010B50848FEF7E2FB0648FEF7D9FB2028A9
:1031E000FAD1012204490348FEF7DEFC0028F8D199
:1031F00010BD0000480100203C00002010B502482E
:10320000FEF7CCFB10BD0000B801002030B50C4625
:103210000546002306E021782846641C00F005F8E6
:103220005B1CDBB29342F6D330BD0185C169490610
:10323000FCD5704710B50A7A002A0ED14A7A0424C8
:10324000130000F08CF906040B0F202E360A6828B4
:1032500003D10A6810700120487210BD0A685070CE
:103260000220F9E700230322002803D0202805D9F3
:103270004B7210BD086883704C7202E00B68987046
:103280004A72CA8010BDCB880A68D054C888401CD6
:1032900082B2CA8008688078C01C8242F2D34C7225
:1032A00010BDCB880A68D054C888401CC88005204F
:1032B000D2E7CB880A68D054C888401CC880062250
:1032C0004A72888010BD0000FFB50C46354905469E
:1032D000087881B0401C0A9E0870AC202070084617
:1032E0000C30407E1746607003222631A01CFCF78C
:1032F00020FFA079802108439F210840F907490E4B
:10330000084310210843F7210840C008C000A071FD
:10331000301DE071287A2072607969790009090707
:103320000001090F08439F21084020304006400E4D
:103330006071EF21084069790322C906C90F0901AC
:10334000084360712946204609310930FCF7F1FE37
:103350002046E2790C300499FCF7EBFEE179204637
:103360000831FCF7AFFF020AA1190A734873532012
:103370008873E07901230B30C1B26A462046FDF71D
:10338000EDF86846017801236A462046FDF7C6F944
:103390006846037822460A210348FFF7D1FB05B0AF
:1033A000F0BD0000040000204802002038B50446AB
:1033B0008079400706D100236A462046FDF7AEF922
:1033C0006846017860794006800F022801D0012804
:1033D00004D100236A462046FDF7C0F8E179204673
:1033E0000831FCF76FFFE179224608328A5C13024C
:1033F00022460932895C591889B2884201D00020DE
:1034000038BDA07AE17A00024018617A80B20229C0
:103410000BDD032909D0FF2907D10549401804D045
:10342000012802D12046FCF793FF012038BD00009F
:103430000200FFFF10B5032401E0641EE4B2FEF7B2
:103440001BFF002802D0002CF7D105E0002C03D090
:10345000FFF79CFA002010BD0449012008710246C4
:1034600040210348FDF7BAFB012010BD3E000020BB
:1034700000140048F8B506460D460020FEF754FF3C
:103480000127FF03092000223946C006FDF7A6FBED
:103490006620FEF7AFFF002404E0305DFEF7AAFFD0
:1034A000641CE4B2AC42F8D3092001223946C006BC
:1034B000FDF794FBF8BDF8B515460E460746002407
:1034C00009E0385D00F0CCF8020A610072548919F5
:1034D000641C4870E4B2AC42F3D36806000EF8BD39
:1034E00010B598B000242022114908A8FCF721FE4D
:1034F00020216846FCF744FE202110A8FCF740FE7E
:103500000922694608A8FFF7D6FF024601E0641CBD
:10351000E4B29442FBD310A9684600F00BF80021F6
:1035200001E0491CC9B28142FBD318B010BD0000B4
:10353000F83F0008F8B515460F46064600240AE095
:103540006000315C801940780902084300F01EF9E0
:103550003855641CE4B2AC42F2D36808F8BD30B40C
:103560007446641E2578641CAB4200D21D46635D20
:103570005B00E31830BC184702E008C8121F08C1FE
:10358000002AFAD170477047002001E001C1121FE4
:10359000002AFBD17047F0B5002315019A00AA1844
:1035A0008C5CC65C7440C4545418C2186678177991
:1035B0005B1C7E401671A678177ADBB27E401672CD
:1035C000E478167B74401473042BE7D3F0BDF7B591
:1035D00084B00D4600236C460022990096008F1897
:1035E000F618521C865DD2B2E655042AF6D35B1C4F
:1035F000DBB2042BF0D3002220460699FFF7CBFF65
:103600000126684600F0BAFA684600F09AFA684661
:1036100000F066FA324668460699FFF7BCFF761C52
:10362000F6B20A2EEDD3684600F0A8FA684600F01C
:1036300088FA0A2268460699FFF7ADFF00200021AC
:10364000820053188E003618491CE35CC9B2AB5592
:103650000429F6D3401CC0B20428F0D307B0F0BD53
:1036600070B5044600F007F805022007000E00F0D0
:1036700002F8284370BD0009000101210843010937
:103680004209891882098918C90701D0082108430D
:10369000010942098918C2098918C90701D0042102
:1036A0000843010982098918C2098918C90701D08C
:1036B00002210843704710B503780C7863401370FB
:1036C00043784C786340537083788C786340937070
:1036D000C078C9784840D07010BDF0B50C4605469A
:1036E00016460978007800F0BBF807466178E8785C
:1036F00000F0B6F84740A178A87800F0B1F847404C
:10370000E178687800F0ACF8474037702178687845
:1037100000F0A6F807466178287800F0A1F8474045
:10372000A178E87800F09CF84740E178A87800F0AC
:1037300097F8474077702178A87800F091F807460D
:103740006178687800F08CF84740A178287800F01C
:1037500087F84740E178E87800F082F84740B77092
:103760002178E87800F07CF807466178A87800F0C6
:1037700077F84740A178687800F072F84740E17820
:10378000287800F06DF84740F770F0BD70B504463A
:10379000000A00F008F805092D01E0B200F003F876
:1037A0000009284370BD70B5020941095118840908
:1037B0000B19C5085B19DD07C309C9181219D218FE
:1037C000860843088919D218002D0ED0C90706D0E3
:1037D000D10701D0102100E02021484070BDD10761
:1037E00001D04021F9E70821F7E7C90705D0D10743
:1037F00001D08021F1E70421EFE7D107EED00221CB
:10380000EBE700000149086070470000000000205D
:1038100070B500247D260546F60003E0304600F032
:1038200005F8641CAC42F9D370BD000070B50A4CB9
:10383000002365690949A26909684843A169914261
:10384000FCD0914201D2521A01E06E1AB218D3187C
:103850000A468342F2D370BD00E000E00000002081
:1038600030B500231A461B25CC0700D04340C409BD
:103870004006E401000E002C00D06840521C4908AC
:10388000D2B2082AF0D3184630BDF7B584B00D4641
:1038900000236C460022990096008F18F618521CDF
:1038A000865DD2B2E655042AF6D35B1CDBB2042B4C
:1038B000F0D30A2220460699FFF76DFE09266846D6
:1038C00000F052F8684600F06DF8324668460699F6
:1038D000FFF761FE684600F021F8761E3606360EC8
:1038E000EDD1684600F040F8684600F05BF8002231
:1038F00068460699FFF74FFE00200021820053180A
:103900008E003618491CE35CC9B2AB550429F6D3C6
:10391000401CC0B20428F0D307B0F0BDFEB5054688
:1039200010A00068002401AE02AF009000208100CA
:103930000919695C3154401CC0B20428F7D302AAAB
:1039400001A96846FFF7C9FE00208200395C121900
:10395000401CC0B2A9540428F7D3641CE4B2042C60
:10396000E4D3FEBD0E090D0BF0B5012100238C0040
:1039700026180FE0F27894460322A5182F18203F4E
:10398000521EFF7F12064755120EF6D162465B1C8F
:103990000255DBB28B42EDD3491CC9B20429E5D3F1
:1039A000F0BD0000F0B50B4C0022002197007E18FE
:1039B000855D491C2B092D072D0F1B015B19E35C4D
:1039C000C9B283550429F2D3521CD2B2042AECD3D3
:1039D000F0BD000018410008FEB50F462C210291F1
:1039E00000218A00835CBB541318D2195C78547090
:1039F0009C789470491CDB78C9B2D3700429F0D349
:103A00000426B000C5192C460190203C217F684651
:103A10000170617F4170A17F8170E17FC170B0074B
:103A20000DD1684600F082F8684600F0C1F8B00891
:103A3000FEF778FB6A4601461046FFF73CFE6846F3
:103A4000217C0078761C41400198F6B239546846D2
:103A5000617C4078414069706846A17C8078414033
:103A6000A9706846E17CC0784140E97002988642BE
:103A7000C7D3FEBDFDF7C6F8FFF721F93020FFF7E9
:103A8000C1FEFEF741FAFEF70BFBFEF7EDFAFEF77B
:103A900097FAFEF7BBFA0F48FDF734FE0D480122F6
:103AA0000D494030FEF780F8FFF71AFDFCF728FDBE
:103AB0000A48FCF749FFFCF78DFBFFF7BBFC074802
:103AC0000078FFF711F8FCF7CBFBFCF7A1FBFCF744
:103AD000B7FBF8E7080100203C000020460000206A
:103AE000FEB5054610A00068002401AE02AF0090AC
:103AF000002081000919695C3154401CC0B20428BF
:103B0000F7D302AA01A96846FFF7E7FD002082006B
:103B1000395C1219401CC0B2A9540428F7D3641CA4
:103B2000E4B2042CE4D3FEBD0201010302780021BB
:103B300043185B784354491CC9B20329F8D3C270B7
:103B40007047F0B5012100238C0026180FE0025DBC
:103B500094460122A518475D2D18203D521CD2B273
:103B6000EF77042AF6D362465B1CF270DBB28B421D
:103B7000EDD3491CC9B20429E5D3F0BDF0B50B4C17
:103B80000022002197007E18855D491C2B092D0716
:103B90002D0F1B015B19E35CC9B283550429F2D3D5
:103BA000521CD2B2042AECD3F0BD00001840000829
:103BB00010B5074B0021425C140912072401120FB3
:103BC000A2189A5C4254491CC9B20429F3D310BD0F
:103BD000184000080000000000000000010203047B
:103BE000060708090000000001020304184200272C
:103BF00001280229032A042B052C062D072E082F45
:103C000009300A310B320C330D340E350F361037B4
:103C100011381239133A143B153C163D173E193F23
:103C20001A401B411C431D441E451F4620470204E9
:103C300006080A0C0E10121416181A1C1E20222434
:103C400026282A2C2E3000323436383A3C3E405852
:103C50005858585858030507090B0D0F111315171D
:103C6000191B1D1F21232527292B2D2F31333537D4
:103C700001393B3D3F4111000103601112010681F2
:103C800011200135E011200157001120014A3F1198
:103C90001201000411000200520011200250840A97
:103CA0001120025403071112020B303011010300DE
:103CB000033B09111103000198F31120030A0006C8
:103CC000761120034C3100201120033001CDA011CA
:103CD000200338111515111203080A0100110204FE
:103CE000000305000A11220400087F001D112004B2
:103CF000402A0CA42211100500640A000A121120A7
:103D00000C000300070C350009C9C38000051140F1
:103D10000800400AAAAA369D20FE11200C180100B6
:103D200008038000202000E8005E11200C240576A6
:103D30001A05720200000012815E11200545030081
:103D4000DE01001120055B400406782011210C00E3
:103D5000A28126AF3FEEC8C7DBF2020811210C0C8E
:103D6000070315FC0F00A28126AF3FEE11210C18AE
:103D7000C8C7DBF20208070315FC0F001123070078
:103D80002C0E0B040C730311500C0CFFFFFFFFFFF4
:103D9000FFFFFFFFFFFFFF11500C18FFFFFFFFFFAA
:103DA000FFFFFFFFFFFFFF11500C24FFFFFFFFFF8E
:103DB000FFFFFFFFFFFFFF11500C30FFFFFFFFFF72
:103DC000FFFFFFFFFFFFFF1150063CFFFFFFFFFF5C
:103DD000FF1101030003000000C1814001C08041C8
:103DE00001C0804100C1814001C0804100C18140CB
:103DF00000C1814001C0804101C0804100C18140BB
:103E000000C1814001C0804100C1814001C08041AA
:103E100001C0804100C1814001C0804100C181409A
:103E200000C1814001C0804100C1814001C080418A
:103E300001C0804100C1814000C1814001C080417A
:103E400001C0804100C1814001C0804100C181406A
:103E500000C1814001C0804101C0804100C181405A
:103E600000C1814001C0804100C1814001C080414A
:103E700001C0804100C1814000C1814001C080413A
:103E800001C0804100C1814001C0804100C181402A
:103E900000C1814001C0804100C1814001C080411A
:103EA00001C0804100C1814001C0804100C181400A
:103EB00000C1814001C0804101C0804100C18140FA
:103EC00000C1814001C0804100C1814001C08041EA
:103ED00001C0804100C1814000C0C101C30302C2D2
:103EE000C60607C705C5C404CC0C0DCD0FCFCE0E3A
:103EF0000ACACB0BC90908C8D81819D91BDBDA1AAA
:103F00001EDEDF1FDD1D1CDC14D4D515D71716D619
:103F1000D21213D311D1D010F03031F133F3F23289
:103F200036F6F737F53534F43CFCFD3DFF3F3EFEF9
:103F3000FA3A3BFB39F9F83828E8E929EB2B2AEA69
:103F4000EE2E2FEF2DEDEC2CE42425E527E7E626D9
:103F500022E2E323E12120E0A06061A163A3A26249
:103F600066A6A767A56564A46CACAD6DAF6F6EAEB9
:103F7000AA6A6BAB69A9A86878B8B979BB7B7ABA29
:103F8000BE7E7FBF7DBDBC7CB47475B577B7B67699
:103F900072B2B373B17170B0509091519353529209
:103FA00096565797559594549C5C5D9D5F9F9E5E79
:103FB0005A9A9B5B99595898884849894B8B8A4AE9
:103FC0004E8E8F4F8D4D4C8C448485458747468659
:103FD0008242438341818040000001CC01D800141B
:103FE00001F0003C002801E401A0006C007801B45D
:103FF0000050019C01880044680102030405066822
:104000003105010203040530160000000000000025
:104010000000000000000000637C777BF26B6FC53E
:104020003001672BFED7AB76CA82C97DFA5947F0BB
:10403000ADD4A2AF9CA472C0B7FD9326363FF7CC97
:1040400034A5E5F171D8311504C723C31896059A34
:10405000071280E2EB27B27509832C1A1B6E5AA057
:10406000523BD6B329E32F8453D100ED20FCB15B42
:104070006ACBBE394A4C58CFD0EFAAFB434D3385AB
:1040800045F9027F503C9FA851A3408F929D38F57F
:10409000BCB6DA2110FFF3D2CD0C13EC5F974417B6
:1040A000C4A77E3D645D197360814FDC222A90882D
:1040B00046EEB814DE5E0BDBE0323A0A4906245CB9
:1040C000C2D3AC629195E479E7C8376D8DD54EA91E
:1040D0006C56F4EA657AAE08BA78252E1CA6B4C6EA
:1040E000E8DD741F4BBD8B8A703EB5664803F60E43
:1040F000613557B986C11D9EE1F8981169D98E9432
:104100009B1E87E9CE5528DF8CA1890DBFE642684A
:1041100041992D0FB054BB1652096AD53036A538D7
:10412000BF40A39E81F3D7FB7CE339829B2FFF879F
:10413000348E4344C4DEE9CB547B9432A6C2233D83
:10414000EE4C950B42FAC34E082EA16628D924B234
:10415000765BA2496D8BD12572F8F6648668981655
:10416000D4A45CCC5D65B6926C704850FDEDB9DAB4
:104170005E154657A78D9D8490D8AB008CBCD30AA2
:10418000F7E45805B8B34506D02C1E8FCA3F0F027E
:10419000C1AFBD0301138A6B3A9111414F67DCEA4D
:1041A00097F2CFCEF0B4E67396AC7422E7AD3585C6
:1041B000E2F937E81C75DF6E47F11A711D29C589D0
:1041C0006FB7620EAA18BE1BFC563E4BC6D27920B2
:1041D0009ADBC0FE78CD5AF41FDDA8338807C731BB
:1041E000B11210592780EC5F60517FA919B54A0DB3
:1041F0002DE57A9F93C99CEFA0E03B4DAE2AF5B028
:10420000C8EBBB3C83539961172B047EBA77D62643
:10421000E169146355210C7D0000000000000000DE
:104220000000000000083399A4D9B2E8347FBEF73B
:1042300014FA7432A357C6AD000000000000000756
:104240000001020304050600684200080000002087
:10425000A4000000783500080C430008A4000020EA
:104260003C0E00008835000800000000000000003F
:10427000000000000000000000000000000000003E
:1042800000A3A68926AFA71329330AB1A215F8FB0C
:10429000DB00000000000000000000000000000043
:1042A00000127A0000000000000000000000000082
:1042B00000001112040D000106A2111204110100E8
:1042C00002221112042100010682111204250100AC
:1042D000020A132000000000000011500C0010031F
:1042E000040404FFFFFFFFFFFFFF0000640900203C
:1042F0000000000000000000C909002000000000CC
:0C430000000000000200000000000000AF
:04000005080000B53A
:00000001FF
